:020000040800F2
:10000000D8AA0020D1020008ED6C0008675F000844
:10001000E96C0008C9150008A98900080000000063
:100020000000000000000000000000000D020008B9
:10003000211900080000000069020008F585000889
:10004000EB020008EB020008EB020008EB020008DC
:10005000EB020008EB020008EB020008EB020008CC
:10006000EB020008EB020008EB020008EB020008BC
:10007000EB020008EB020008EB020008EB020008AC
:10008000EB020008EB020008EB020008EB0200089C
:10009000EB020008EB020008EB020008EB0200088C
:1000A000EB02000841880008EB020008EB020008A0
:1000B000EB020008EB020008EB020008EB0200086C
:1000C000EB020008EB020008EB020008EB0200085C
:1000D000EB020008EB020008EB020008EB0200084C
:1000E00035210008EB020008EB020008EB020008D3
:1000F000EB020008EB020008EB020008EB0200082C
:10010000EB020008EB020008EB020008EB0200081B
:10011000EB020008EB020008EB020008EB0200080B
:10012000EB020008EB020008EB020008EB020008FB
:10013000EB020008EB020008EB020008EB020008EB
:10014000EB020008EB020008EB020008EB020008DB
:10015000EB020008EB020008EB020008EB020008CB
:10016000EB020008EB020008EB020008EB020008BB
:10017000EB020008EB020008EB02000800000000A0
:10018000EB020008EB020008EB020008EB0200089B
:10019000EB020008EB020008EB020008EB0200088B
:1001A000EB020008EB020008EB020008EB0200087B
:1001B000EB020008EB020008EB020008EB0200086B
:1001C000EB020008EB020008EB020008EB0200085B
:1001D000EB020008EB020008EB020008EB0200084B
:1001E000EB020008EB020008EB020008EB0200083B
:1001F000EB020008EB020008DFF80CD000F0E4F995
:100200000048004721A30008D8AA00202D4B1968F8
:100210000868B0E8F04F80F30988BFF36F8F4FF0A4
:10022000000080F311887047000000000848006853
:10023000006880F308884FF0000080F3148862B6ED
:1002400061B6BFF34F8FBFF36F8F00DF00BF00BFFA
:1002500008ED00E0DFF80C00016841F47001016076
:10026000704700BF88ED00E0EFF30980BFF36F8FA8
:10027000144B1A681EF0100F08BF20ED108A20E9F9
:10028000F04F106009B44FF0500072B680F311883F
:10029000BFF34F8FBFF36F8F62B60BF0F5FF4FF0D8
:1002A000000080F3118809BC19680868B0E8F04FB5
:1002B0001EF0100F08BFB0EC108A80F30988BFF35E
:1002C0006F8F704710010020EFF30580704700002A
:1002D0000648804706480047FEE7FEE7FEE7FEE7E0
:1002E000FEE7FEE7FEE7FEE7FEE7FEE71D87000804
:1002F000F90100082DE9F05F0546002092469B4673
:1003000088460646814640241BE02846414647462B
:10031000224600F0ACF853465A46C01A914110D319
:1003200011461846224600F093F82D1A67EB010893
:100330004F4622460120002100F08AF817EB000901
:100340004E41201EA4F10104DFDC484631462A4616
:100350004346BDE8F09F40EA01039B0703D009E054
:1003600008C9121F08C0042AFAD203E011F8013BA1
:1003700000F8013B521EF9D27047D2B201E000F8FA
:10038000012B491EFBD270470022F6E710B5134639
:100390000A4604461946FFF7F0FF204610BD034603
:1003A00011F8012B00F8012B002AF9D118467047EB
:1003B0002DE9F04791460F4680460446002614F882
:1003C000015B2DB100F064F80068405DC007F6D114
:1003D0002B2D02D02D2D18D0641E4A4639462046BA
:1003E00000F05AF827B13968A14201D1C7F800805E
:1003F00071054FF002040BD54042002803DD08F0E0
:1004000005FB0460A007BDE8F08746F48066E4E7DA
:100410000028F8DA08F0FAFA04606FF00040F2E71A
:1004200000F089B830B50B46014600202022012497
:1004300009E021FA02F59D4205D303FA02F5491BB2
:1004400004FA02F52844151EA2F10102F1DC30BDC8
:10045000202A04DB203A00FA02F100207047914084
:10046000C2F1200320FA03F3194390407047202A79
:1004700004DB203A21FA02F00021704721FA02F34E
:10048000D040C2F120029140084319467047000055
:1004900000487047E41401082DE9F05F82460078B7
:1004A000002715468B460AF10104B946302801D0D1
:1004B0009DB113E014F8010B0127782803D05828C8
:1004C00001D045B10AE00DB1102D07D1002710254C
:1004D00014F8010B02E0082500E00A250026B046CA
:1004E0000EE005FB080005FB06F1012701EB1046B5
:1004F0001FFA80F8B6F5803F00D3B94614F8010B17
:10050000294600F073F80028EBDABBF1000F05D0A4
:100510000FB1641E00E05446CBF80040B9F1000F63
:1005200006D008F073FA02210160C81EBDE8F09FF2
:1005300048EA0640FAE72DE9F04791460E46804624
:100540000446002514F8017B2FB1FFF7A1FF0068D6
:10055000C05DC007F6D12B2F02D02D2F1ED0641EF8
:100560004A463146204600F04FF826B13268A24292
:1005700001D1C6F800806A054FF0020418D50023A7
:10058000D0EB030563EB01025D1B934109DB002304
:10059000D0EB030063EB0101BDE8F08745F4806513
:1005A000DEE708F033FA046000204FF00041F3E783
:1005B000021E71F10002EFDA08F028FA04604FF031
:1005C000FF304108E8E70000064C074D06E0E06810
:1005D00040F0010394E8070098471034AC42F6D38A
:1005E000FFF70EFE7C1501089C1501083A2800D281
:1005F000303820F02002412A01D3A2F1370088428E
:1006000001D34FF0FF3070472DE9F74F4FF000094D
:10061000009C1546CA4614F8010B302801D0ADB134
:1006200015E014F8010B4FF00109782803D0582881
:1006300001D04DB10BE00DB1102D08D14FF00009E4
:10064000102514F8010B02E0082500E00A25002718
:100650003E46B8464FEAE57B16E0A5FB07230BFBB9
:10066000073105FB080005FB0616030CD71846F1F9
:1006700000061FFA80F8381E4FF0010976F5803029
:1006800000D3CA4614F8010B2946FFF7AFFF002834
:10069000E3DA019838B1B9F1000F01D0641E00E02F
:1006A000009C01980460BAF1000F08D008F0AEF980
:1006B00002210160C81E014603B0BDE8F08F31047D
:1006C00041EA174148EA0740F6E770B58C1810F880
:1006D000015B15F0070301D110F8013B2A1106D187
:1006E00010F8012B03E010F8016B01F8016B5B1EA1
:1006F000F9D12B0705D40023521E0DD401F8013B7C
:10070000FAE710F8013BCB1A921C03E013F8015BE7
:1007100001F8015B521EF9D5A142D8D3002070BD6B
:100720005849096821F44031574AC2F80413114668
:10073000D1F8041342681143524A116001684968B4
:1007400021F480710268516001684A68016942EAD7
:100750000121026851600168496821F04071026816
:1007600051600168496882681143026851600168FC
:10077000896821F400610268916001688968C26833
:10078000114302689160414A816A914218D0016820
:10079000896821F070610268916001688968826AE5
:1007A0001143026891600168896821F04051026834
:1007B000916001688968C26A1143026891600BE028
:1007C0000168896821F07061026891600168896838
:1007D00021F04051026891600168896821F00201AE
:1007E0000268916001688A68816942EA4101026891
:1007F00091602021095CA1B10168496841F4006160
:10080000026851600168496821F4604102685160E2
:1008100001684A68416A491E42EA413102685160F2
:1008200005E00168496821F40061026851600168CF
:10083000C96A21F470010268D1620168CA6A818BB9
:10084000491E42EA01510268D1620168896821F4B7
:1008500000710268916001688A6890F8301042EA7D
:100860004121026891600168896821F48061026811
:10087000916001688A68416942EA81210268916059
:100880007047000004230140002001400100000FD8
:100890002DE9F04106460F461446A4F12000144904
:1008A000096801EB4101134B03EB81018968C98899
:1008B00048430F49096801EB410103EB8101896855
:1008C0008988CD1DE91705EB5171C910084B1B68CC
:1008D00003EB4303DFF81CC00CEB83039B681B682E
:1008E00000FB01323946304601F01CF8BDE8F081CA
:1008F00030000020940300202DE9FF5F04461546D8
:10090000984601264FF0000900274FF0000AAB4639
:1009100000E07F1C1BF8011B0029FAD100F098F8B9
:100920003D49096801EB41013C4A02EB81018968BC
:100930008988B0FBF1FAB8F1010F06D0B8F1020FC7
:1009400015D0B8F1030F22D10FE0AAEB070032490E
:10095000096801EB4101314A02EB8101896889880C
:10096000484304EB500086B213E0264611E0AAEBA0
:1009700007012948006800EB4000284A02EB80008C
:1009800080688088624201FB002086B201E0264632
:1009900000BF00BF012E02DBB6F5004F00DB0126D1
:1009A00014E02A7830460199FFF772FF1A48006870
:1009B00000EB4000194901EB8000806880883044DA
:1009C00086B26D1C09F101001FFA80F900F040F8B1
:1009D0001149096801EB4101104A02EB8101896864
:1009E000898809FB110080B20B49096801EB4101BC
:1009F00002EB810189688988884201D3012000E0E7
:100A00000020297809B1012100E0002108400028D8
:100A1000C7D1BDE8FF9F00003000002094030020F4
:100A200030B5034600F014F801FB0030840006489E
:100A3000006800EB800505EBC005044800EB85006D
:100A4000406A025130BD0000300000200803002041
:100A50000148006870470000280000200148006835
:100A6000704700002C00002010B5012000F002F8B3
:100A700010BD00002DE9F04F87B0074646F6253837
:100A800000200390002600F09FF905F07BFD039005
:100A90000398112803D0012007B0BDE8F08F00F0C3
:100AA00023F9644864490860084602F0DEFA6420CD
:100AB000049005200590002006904FF22446012165
:100AC0005D48C16043F60450B6FBF0F15A488160BE
:100AD00004A902F02DFB47B94FF4F07057490860A4
:100AE0004FF448705649086007E04FF44870534986
:100AF00008604FF4F070524908605048D0F800A0E8
:100B00004F48006800904FF0010B0F20029010201A
:100B1000019002242225A94600204A4908600520A8
:100B2000486000200862C86148620220C86040F640
:100B3000FF708861002048610846C0F810A004FBDF
:100B400006F0B0FBF8F0886205FB06F0B0FBF8F0A9
:100B5000C8620AEB0400284448447043B0FBF8F034
:100B600008630846C0F834B0029888630198C863E7
:100B700000980864A0034864102088640020C864BA
:100B80002003086540104865401088654010C8651E
:100B90004010086640104866274802F0FEF8601EC4
:100BA000294948616019401EC861244800682044F2
:100BB0002844401E48622148006820442844484494
:100BC000401EC8621D4801681F4801661C48016834
:100BD0001D48416608201D4908604FF4C0704861F7
:100BE00007211A48C16100201849C862084603F06D
:100BF0005DFC0021144880F8341080F8351080F82E
:100C0000361001611248104908600E490E4803F081
:100C100079FA0D4803F0D6FA074802F05FFC00F0BD
:100C200033F90C4800F00AF93946002006F066F85E
:100C3000002031E7006C01407803002028000020EC
:100C40002C0000200C020020D0020020AC03002069
:100C5000006801400000002030B58DB004460D460C
:100C600000200090FFF7F4FE019000200290FFF7B3
:100C7000F5FE0390002004900995FF2005900020C8
:100C800006908DF8300000218DF831108DF832106B
:100C90004FF4C060079007200890FFF7D9FE0A9034
:100CA000FFF7DCFE0B90224669460C4803F05AFA27
:100CB0004FF0FF3004EB4401094A02EB8101486028
:100CC000084804EB440102EB810188604FF07F404B
:100CD00004EB440142F821000DB030BDD0020020E9
:100CE000940300200000002008B500BF35480068CC
:100CF00040F08060334908600846006800F080607A
:100D0000009000BF00BF2F482038006840F080608E
:100D10002C49203908600846006820F0806008608F
:100D200000BF28481438006840F4000025491439F1
:100D300008600846006800F40000009000BF00BF93
:100D400020483438006840F400001E4934390860F7
:100D50000846006820F40000086000BF19480068D9
:100D600040F00060174908600846006800F0006025
:100D7000009000BF00BF13482038006840F00060BA
:100D80001049203908600846006820F000600860BB
:100D900000220321582003F0EFFA582003F0DCFA78
:100DA000002203215A2003F0E7FA5A2003F0D4FA74
:100DB00000220321622003F0DFFA622003F0CCFA64
:100DC00008BD00004438024000B587B000BF164897
:100DD000006840F40070144908600846006800F498
:100DE0000070019000BF00BF4FF40040029001204E
:100DF000039004900320059002A90C4802F00EFD18
:100E000000224FF40041094802F025FE142002F0B0
:100E100099FB0122D103054802F01DFE0A2002F0D1
:100E200091FB07B000BD00003038024000240240B2
:100E3000014908607047000030000020044909683B
:100E400001EB4101034A02EB810188607047000019
:100E500030000020940300200349096801EB4101A0
:100E6000024A42F82100704730000020940300201D
:100E700010B50124E103034802F0DCFD00B10024B9
:100E8000204610BD0020024010B51E481E490860D3
:100E900002201E490860072048600420886007205F
:100EA000C8600220086148618861002016494860D6
:100EB0000021154881600421C16020210161402189
:100EC00041614FF4C07181610021C1614FF4006143
:100ED0000162490041620021816200F067F80B491C
:100EE000094804F043FA18B101200949087002E0EA
:100EF00000200749087040F2036000F00BF8044836
:100F0000007810BD400100A03C04002070040020C7
:100F10003400002038B5044600200090012021490B
:100F2000086010204860012088600020C8604FF6EB
:100F3000FF721D4804F053FA012002F003FB022067
:100F40001849086010204860012088600020C860AF
:100F50004FF6FF72144804F042FA0320114908606A
:100F600010204860082088600020C8604FF6FF729B
:100F70000D4804F034FA4FF40C7000900420094935
:100F8000086010204860012088600098C8604FF613
:100F9000FF72054804F023FA2146034804F00BFAD7
:100FA00038BD00008C0400203C04002030B587B020
:100FB00004460D4600BF6748006840F001006549DF
:100FC00008600846006800F00100019000BF00BF03
:100FD00000BF60480838006840F480005D49083967
:100FE00008600846006800F48000019000BF00BF60
:100FF00000BF0846006840F0080008600846006826
:1010000000F00800019000BF00BF00BF0846006864
:1010100040F0100008600846006800F010000190E1
:1010200000BF00BF00BF0846006840F02000086015
:101030000846006800F02000019000BF00BF00BF1C
:101040000846006840F0400008600846006800F06C
:101050004000019000BF00BF00BF0846006840F09C
:10106000800008600846006800F08000019000BF22
:1010700000BF00BF0846006840F480700860084662
:10108000006800F48070019000BF00BF0220039050
:1010900001200490032005900C2006904CF2037070
:1010A000029002A92C4802F0B9FB4FF6837002901F
:1010B00002A92A4802F0B2FB4FF63F00029002A9B3
:1010C000274802F0ABFB48F23710029002A92548EE
:1010D00002F0A4FB4FF62C70029002A9224802F005
:1010E0009DFB40F2FF60029002A9204802F096FBAF
:1010F00000201F49486080211D4881608900C1602F
:101100004900016189004161890081610021C1615B
:101110004FF400310162002141620321816200210C
:10112000C162016313481249086000BF084620638A
:10113000846300BF01F0FEFB0D4801F033FC002288
:101140000F21382003F018F9382003F005F907B013
:1011500030BD000038380240000C02400010024050
:101160000014024000180240001C0240002002400F
:101170009C0400201064024010B504462146024839
:1011800004F096FA10BD0000502A002010B5044863
:1011900004F0A1FA042801D0012010BD0020FCE7D2
:1011A000502A002010B5002400F014F8012801D0C6
:1011B000022010BD064804F0A2FA044634B94FF4E8
:1011C0000061034804F028F900B101242046F0E74B
:1011D000502A002008B501200090FFF749FE08B909
:1011E000002000909DF8000008BD00002DE9F843A4
:1011F00004460D4616461F464FF0000833462A4661
:1012000021460548009704F061FB08B14FF0010842
:101210004046BDE8F8830000502A00202DE9F8433D
:1012200004460D4616461F464FF0000833462A4630
:1012300021460548009704F06EFC08B14FF0010804
:101240004046BDE8F8830000502A00202DE9F04315
:1012500087B005464FF000090020049003900290EB
:101260006B48006801696B480078884728702878C7
:1012700000287DD00024BEE005A800EB440206A8AB
:1012800000EB44016248006843696248007898476F
:101290006148007800F0080058B106A830F81460E2
:1012A00005A830F8140006A921F8140005A820F8B4
:1012B00014605948007800F0020040B106A830F8E8
:1012C000140040F21F31081A06A921F814005248F0
:1012D000007800F0040040B105A830F8140040F296
:1012E000DF11081A05A921F8140006A830F8140027
:1012F0004A4951F82410884207D906A830F814004A
:10130000464951F82410401A06E0444850F8240099
:1013100006A931F81410401A87B205A830F8140055
:101320003F4951F82410884207D905A830F8140025
:101330003B4951F82410401A06E0394850F824007F
:1013400005A931F81410401A1FFA80F807EB0800BD
:1013500005280BDD06A830F81400304941F82400B8
:1013600005A830F814002E4941F824002B4800E06D
:1013700049E030F8240081B2A81C20F81410284855
:1013800030F8240081B2A81D20F8141002A803AB85
:1013900004AA214600901F48007808F03FFE0498F8
:1013A000C1B205F10A0001550398C1B205F10E0062
:1013B0000155029830B1012809D002280CD0032829
:1013C00014D10EE0012105F10C00015511E00221BC
:1013D00005F10C0001550CE0032105F10C0001554D
:1013E00007E0002105F10C00015502E04FF0010972
:1013F00000BF00BF641C2878A0423FF63DAF2846DE
:1014000000F010F88146484607B0BDE8F0830000C0
:1014100050000020550000205400002084000020CF
:101420008C00002038B50446002000900025694655
:101430001748007808F0E4FD0098182816D005DC5D
:1014400058B110280CD014281CD10CE01C2810D046
:10145000482811D0492815D111E00020206113E05F
:101460000120206110E0022020610DE003202061B6
:101470000AE00420206107E00520206104E0062046
:10148000206101E0012500BF00BF284638BD0000F3
:101490005500002000B587B000BF0E48006840F43A
:1014A00080700C4908600846006800F48070019064
:1014B00000BF00BF4FF400500290002003900120B5
:1014C00004900320059002A9034802F0A7F907B091
:1014D00000BD0000303802400020024010B586B048
:1014E0000024FFF7D7FF4FF4005001900120039034
:1014F000022004900B48029001A90B4802F08EF9DB
:1015000000220F21282002F037FF282002F024FFBC
:10151000064800688169064800788847204606B07A
:1015200010BD0000000021100020024050000020EB
:10153000550000202DE9F04104460D460026B04636
:101540001D4801681D48007888471B4841685420A1
:101550008847C7B2112F09D01748416870208847C3
:1015600000F0FF0870201549087002E0542013496C
:101570000870112F02D0B8F1110F19D10E4810497F
:101580000860AC4203DA01200E49087002E00C202A
:101590000C4908706EB90A480068816807480078ED
:1015A000884707480068C16804480078884700E019
:1015B00003263046BDE8F08194000020550000204D
:1015C000500000205400002000BFFEE7F8B504469C
:1015D0000D4616461F464FF48030134948600021DF
:1015E00011488160C1600164FF214164C76300212B
:1015F00081630E480C490860084601F06DF888B90F
:101600000121094800F0FAFF60B9012033462A465B
:1016100021460090044801F066F918B90A210248F1
:1016200001F0AEF8F8BD00007802002000B00240E2
:101630002DE9F04399B005460E4617461C46DDF8E5
:101640008090FFF705FA07FB00604FF0404101EB87
:1016500080081A4803904FF400301949486000216F
:1016600017488160FFF7F4F9011B1548C16000219C
:101670000164C1638163816481624162FFF7E8F9BB
:10168000001B0F490862084601F026F801210C48AA
:1016900000F0B4FF00210A4800F0B0FF4346424684
:1016A00029460748CDE9004900F07EFF0A21044899
:1016B00001F066F819B0BDE8F083000000B0024008
:1016C000780200202DE9F0470C4617469C46DDF8CD
:1016D0002080D0F80090D9F8449009F0404948EAB9
:1016E0000C4A49EA0A09D0F800A0CAF84490D0F898
:1016F0000090C9F83C70D0F80490B9F5403F4ED145
:1017000004F07F4604F47F0104F47F42E3B2D0F892
:101710000890B9F1000F06D142EA010949EA060929
:1017200049EA030536E0D0F80890B9F1010F04D179
:1017300042EA010949EA03052CE0D0F80890B9F122
:10174000020F09D1C90C920ADB084FEA421949EA93
:10175000C12949EA03051DE0D0F80890B9F1030F4B
:101760000CD1F60FC90CD20ADB084FEA421949EA3C
:10177000812949EAC63949EA03050BE0360F090D0C
:10178000120B1B094FEA021949EA012949EA0639F5
:1017900049EA0305D0F80090C9F8385003E0D0F8C2
:1017A0000090C9F80C40BDE8F087000001460878B9
:1017B00010381823B0FBF3F20848805CC865032A90
:1017C00005D908686FF30900001D886503E0086803
:1017D0006FF309008865886D70470000BC1301082D
:1017E000014600208A6A8B69CBB932B1012A0DD03B
:1017F000022A03D0032A10D10EE000BFCB6A03F007
:101800008073B3F1807F00D1012007E0CB6AB3F190
:10181000C07F00D1012001E000E000BF34E08B690F
:10182000B3F5005F1AD132B1012A07D0022A03D0E2
:10183000032A11D10AE000BF01200EE0CB6A03F0B9
:101840008073B3F1807F00D1012006E0CB6AB3F151
:10185000C07F00D1012000E000BF15E032B1012AB5
:1018600005D0022A04D0032A0CD103E000BF00BF38
:10187000012008E0CB6A03F08073B3F1807F00D1D0
:10188000012000E000BF00BF704730B5039C42EA72
:10189000811545EA032545EA0445C56630BD0000CB
:1018A0007CB505460C46012D08D860780090237859
:1018B00015220021064801F0F0FD08E0605D2B468E
:1018C00039220021CDE90004014801F011FD7CBD61
:1018D000780300202DE9F04704460D4616461F46C2
:1018E000DDF8208002F0BEF8814609E002F0BAF887
:1018F000A0EB0900B0F57A7F02D90320BDE8F0879C
:101900002068406F00F001000028EFD046EA851003
:1019100040EA072040EA08402168C8660020EDE759
:10192000704700002DE9FC4F0746894692464FF06C
:10193000000800263A48006800EB4000394901EBF6
:1019400080008068B0F806B03548006800EB4000C1
:1019500001EB800080688588E81DC11700EB51719C
:10196000C910C5EBC101C9B2019100BF54E0E81D27
:10197000C11700EB5171C91001FB08A4C11700EB9E
:101980005171C910012904D0022905D0032909D1B8
:1019900009E0207800900FE06078217840EA01208B
:1019A000009009E000BF20780004617840EA01203F
:1019B000A1780843009000BF00BF002624E0A91BC7
:1019C00001980844401E012101FA00F000990840E6
:1019D00060B11349096801EB4101124B53F8212012
:1019E000B91988B24946FFF71BF80CE00C490968A1
:1019F00001EB41010B4B03EB81014A68B91988B235
:101A00004946FFF70DF8761CAE42D8D309F1010024
:101A10001FFA80F908F10108D845A8D3BDE8FC8F6A
:101A2000300000209403002003B583B004980128FF
:101A300075D103980A287FD2DFE800F005111D292F
:101A400035414D59657242200090FC48D0F8EC00B9
:101A50002C238A22AD210290FFF7EAFD6CE04220A0
:101A60000090F648D0F8140129238A22AD21029073
:101A7000FFF7DEFD60E042200090F048D0F83C0126
:101A800029238A22AD210290FFF7D2FD54E04220A3
:101A90000090EA48D0F8640129238A22AD210290FF
:101AA000FFF7C6FD48E042200090E448D0F88C01E2
:101AB0002E238A22AD210290FFF7BAFD3CE042209E
:101AC0000090DE48D0F8B4012A238A22AD2102908A
:101AD000FFF7AEFD30E042200090D848D0F8DC019E
:101AE0002A238A22AD210290FFF7A2FD24E04220A2
:101AF0000090D248D0F804022A238A22AD21029015
:101B0000FFF796FD18E042200090CC48D0F82C0258
:101B10002A238A22AD210290FFF78AFD0CE00CE017
:101B200042200090C548D0F854022A238A22AD21D1
:101B30000290FFF77DFD00BFCCE20498022875D12A
:101B400003980A287FD2DFE800F005111D293541EE
:101B50004D59657242200090B848D0F8EC002C2313
:101B60008A22DB210290FFF763FD6CE042200090A7
:101B7000B248D0F8140129238A22DB210290FFF712
:101B800057FD60E042200090AC48D0F83C0129238A
:101B90008A22DB210290FFF74BFD54E042200090A7
:101BA000A648D0F8640129238A22DB210290FFF79E
:101BB0003FFD48E042200090A048D0F88C012E2341
:101BC0008A22DB210290FFF733FD3CE042200090A7
:101BD0009A48D0F8B4012A238A22DB210290FFF729
:101BE00027FD30E0422000909448D0F8DC012A2301
:101BF0008A22DB210290FFF71BFD24E042200090A7
:101C00008E48D0F804022A238A22DB210290FFF7B3
:101C10000FFD18E0422000908848D0F82C022A23BB
:101C20008A22DB210290FFF703FD0CE00CE042204A
:101C300000908248D0F854022A238A22DB210290A5
:101C4000FFF7F6FC00BF45E20498032871D1039822
:101C50000A2812D2DFE800F005121F2C3946536023
:101C60006E7B422000907548D0F8EC002C238A222D
:101C700040F257110290FFF7DBFC75E04220009024
:101C80006E48D0F8140129238A2240F2571102909D
:101C9000FFF7CEFC68E0422000906848D0F83C0195
:101CA00029238A2240F257110290FFF7C1FC5BE022
:101CB000422000906148D0F8640129238A2240F232
:101CC00057110290FFF7B4FC4EE0422000905B48B1
:101CD000D0F88C012E238A2240F257110290FFF790
:101CE000A7FC41E0422000905448D0F8B4012A23D8
:101CF0008A2240F257110290FFF79AFC34E042200A
:101D000000904E48D0F8DC012A238A2240F2571175
:101D10000290FFF78DFC27E0422000904748D0F862
:101D200004022A238A2240F257110290FFF780FC16
:101D30001AE01AE0422000904048D0F82C022A23F2
:101D40008A2240F257110290FFF772FC0CE0422009
:101D500000903A48D0F854022A238A2240F25711C0
:101D60000290FFF765FC00BFB4E10498042864D139
:101D700003980A2812D2DFE800F005121F2C39461A
:101D80005363707D422000902C48D0F8EC002C2347
:101D90008A2240F285110290FFF74AFC77E0422048
:101DA00000902648D0F8140129238A2240F2851198
:101DB0000290FFF73DFC6AE0422000901F48D0F8F7
:101DC0003C0129238A2240F285110290FFF730FC62
:101DD0005DE0422000901948D0F8640129238A224E
:101DE00040F285110290FFF723FC50E04220009062
:101DF0001248D0F88C012E238A2240F285110290DD
:101E0000FFF716FC43E0422000900C48D0F8B401E4
:101E10002A238A2240F285110290FFF709FC36E05E
:101E2000422000900548D0F8DC012A238A2240F2A3
:101E300085110290FFF7FCFB29E029E0F82500203E
:101E400042200090A448D0F804022A238A2240F2BB
:101E500085110290FFF7ECFB19E0422000909E48AC
:101E6000D0F82C022A238A2240F285110290FFF733
:101E7000DFFB0CE0422000909748D0F854022A2360
:101E80008A2240F285110290FFF7D2FB00BF21E1C8
:101E90000498052871D103980A2812D2DFE800F0CF
:101EA00005121F2C394653606E7B422000908A48F1
:101EB000D0F8EC002C238A224FF401710290FFF736
:101EC000B7FB75E0422000908348D0F81401292325
:101ED0008A224FF401710290FFF7AAFB68E04220CA
:101EE00000907D48D0F83C0129238A224FF40171EB
:101EF0000290FFF79DFB5BE0422000907648D0F80F
:101F0000640129238A224FF401710290FFF790FBAC
:101F10004EE0422000907048D0F88C012E238A2297
:101F20004FF401710290FFF783FB41E042200090E3
:101F30006948D0F8B4012A238A224FF40171029033
:101F4000FFF776FB34E0422000906348D0F8DC01D4
:101F50002A238A224FF401710290FFF769FB27E0E0
:101F6000422000905C48D0F804022A238A224FF4D1
:101F700001710290FFF75CFB1AE01AE0422000902A
:101F80005548D0F82C022A238A224FF4017102907E
:101F9000FFF74EFB0CE0422000904F48D0F854026F
:101FA0002A238A224FF401710290FFF741FB00BF00
:101FB00090E00498062871D103980A2812D2DFE82D
:101FC00000F005121F2C394653606E7B42200090B2
:101FD0004148D0F8EC002C238A2240F232210290B2
:101FE000FFF726FB75E0422000903B48D0F8140133
:101FF00029238A2240F232210290FFF719FB68E080
:10200000422000903448D0F83C0129238A2240F233
:1020100032210290FFF70CFB5BE0422000902E483B
:10202000D0F8640129238A2240F232210290FFF77E
:10203000FFFA4EE0422000902748D0F88C012E2372
:102040008A2240F232210290FFF7F2FA41E0422068
:1020500000902148D0F8B4012A238A2240F232218C
:102060000290FFF7E5FA34E0422000901A48D0F8D9
:10207000DC012A238A2240F232210290FFF7D8FAAB
:1020800027E0422000901448D0F804022A238A2234
:1020900040F232210290FFF7CBFA1AE01AE0422018
:1020A00000900D48D0F82C022A238A2240F23221D7
:1020B0000290FFF7BDFA0CE0422000900648D0F8ED
:1020C00054022A238A2240F232210290FFF7B0FA0A
:1020D00000BF00BF05B000BDF825002008B51A20DC
:1020E000134900901723B222D1F87C0240F2071165
:1020F000FFF79EFA052008F09AFE1A200C4900907E
:102100001723B222D1F87C0240F2B111FFF790FA06
:10211000052008F08CFE1A20054900901723B222F2
:10212000D1F87C024FF41871FFF782FA08BD000065
:10213000F825002010B500246422214604480068D8
:1021400008F0E8FE4FF4005001F05AFB10BD00000B
:10215000C800002001225103024801F07CFC00BFAE
:10216000FEE700000024024030B504460D46002280
:102170002946204600F002F830BD0000F0B50346C5
:10218000012500241148407A01281CDA00200F4E56
:10219000767A0E4FB8553846467A001D40F82630FC
:1021A000001F467A083082553E46707A461C7E7281
:1021B000044604F1300008703A2048702F208870DF
:1021C0000020C87000252846F0BD00009C2D00208E
:1021D00030B50246002300240868012816D0136891
:1021E0006FF30E03D1E901052843CD6828430D693B
:1021F00028434D6928438D692843CD6928430D6ADA
:1022000028434D6A28430343136019E0136823F4FD
:10221000F843D1E9070528434D6A2843034354682E
:102220006FF30E04D1E901052843CD6828430D69F9
:1022300028434D6928438D69284304431360546043
:10224000002030BD0246506940EA41005061002044
:10225000704718B5034600200090D1E900042043E0
:102260008C68641E40EA4410CC6840EA4420009028
:1022700000981861002018BD70B50346154600226D
:102280000024012D1FD09A6802F070420868401E99
:102290004E68761E40EA06168868401E46EA00260A
:1022A000C868401E46EA0036088A401E46EA0046D4
:1022B000888A401E46EA0056087E401E46EA0060B4
:1022C00002439A6022E09A6811480240C868401EA2
:1022D0000603888A401E46EA00500243DC6804F088
:1022E00070440868401E4E68761E40EA06168868EC
:1022F000401E46EA0026088A401E46EA0046087E3E
:10230000401E46EA006004439A60DC60002070BD15
:10231000FF0F0FFF18B502460020009000BF92F893
:102320003C00012801D1022018BD012082F83C00A8
:1023300000BF0868092822D91068C0680B780A3BDA
:1023400003EB43040723A34098431368D860594B19
:102350000868984207D11068C0680B7A40EA0360A9
:102360001368D8601FE00B780A3B03EB43038868CF
:1023700098401368DB6818431368D86013E010684E
:1023800000690B7803EB43040723A34098431368C9
:1023900018610B7803EB43038868984013681B6946
:1023A0001843136818614868072817D21068406BF3
:1023B0000B795B1E03EB83041F23A3409843136830
:1023C0005863088880B20B795B1E03EB8303984047
:1023D00013685B6B18431368586331E048680D2835
:1023E00017D21068006B0B79DB1F03EB83041F23EC
:1023F000A340984313681863088880B20B79DB1FE9
:1024000003EB8303984013681B6B1843136818632E
:1024100016E01068C06A0B790D3B03EB83041F23A1
:10242000A34098431368D862088880B20B790D3BAB
:1024300003EB830398401368DB6A18431368D86280
:102440001D4B1068984208D10868122805D11B4816
:10245000006840F48000C3F80403174B10689842EA
:1024600020D1144B0868984202D00868112819D16D
:102470001248006840F40000104B18600D4B0868CB
:1024800098420FD10E4800680E4BB0FBF3F000EB02
:1024900080004000009002E00098401E00900098EC
:1024A0000028F9D100BF002082F83C0000BF00BF27
:1024B0003AE7000012000010002001400423014010
:1024C000F800002040420F0070B5044600250CB90A
:1024D000012070BD1549A06A884200D000BF206C61
:1024E00030B9204600F024F80020606484F83C00F5
:1024F000206C00F0100088B9206C20F4885040F067
:10250000020020642046FEF70BF900206064206C76
:1025100020F0020040F00100206400E0012500BF2F
:10252000002084F83C0000BF2846D2E70100000FDD
:1025300010B586B00446142101A8FDF725FF174900
:102540002068884227D100BF1548006840F4807099
:10255000134908600846006800F48070009000BFCE
:1025600000BF00BF0E481438006840F001000C495D
:10257000143908600846006800F00100009000BFB0
:1025800000BF40200190032002900020039001A989
:10259000044801F043F906B010BD000000200140DE
:1025A00044380240000002402DE9F84304460F463B
:1025B00015461E46DDE9088900BF94F85000012841
:1025C00002D10220BDE8F883012084F8500000BF4A
:1025D000022084F85100206845614346324639465E
:1025E0002046CDF80090FFF76DF82068006840F0B5
:1025F0000100216808600020E4E7000070B5024691
:102600000C465068B0F5403F02D0506800B100BFA2
:1026100000BF92F85000012801D1022070BD0120B6
:1026200082F8500000BF022082F8510004EB4406FB
:1026300002F1200000EBC6010E89486840EA06401E
:102640000E8A40EA06508E8A40EA4653214D486879
:102650000A2802D04868092804D1C86800F07F40E1
:10266000034302E0087B43EA0063A4B91068406AB0
:10267000A84318431668706208681668B061486815
:102680000A2802D04868092819D1C86820F07F407C
:102690001668B06213E01068C069A8431843166852
:1026A000F06108681668306148680A2802D04868F6
:1026B000092804D1C86820F07F40166830620120E4
:1026C00082F8510000BF002082F8500000BF00BF18
:1026D000A4E700000F0033FF10B504460CB9012039
:1026E00010BD94F8510028B9002084F8500020460D
:1026F00000F02EF8022084F851002068006820F4D1
:10270000403061680843216808602068406B20F011
:102710000700A1680843216848632068006C6FF3D4
:102720000D00E168084321680864208A0105A08A39
:1027300041EA40502168496B21F440110843216867
:10274000486300206065012084F851000020C7E73D
:1027500008B5094A016891420DD100BF07490968CF
:1027600041F40001054A11601146096801F40001B5
:10277000009100BF00BF08BD00B0024030380240E9
:10278000F8B504460D46002000902068006800F06F
:102790000100002843D001F065F9064639E02068C1
:1027A00040680090009800F02100E0B1009800F02F
:1027B000200018B1606D40F002006065009800F0E4
:1027C000010018B1606D40F00100606521202168B2
:1027D0008860042084F8510000BF002084F8500075
:1027E00000BF0120F8BD681C98B101F03BF9801BC7
:1027F000A84200D86DB9606D40F0200060650320EC
:1028000084F8510000BF002084F8500000BF03206E
:10281000E8E72068406800F002000028BFD0206888
:10282000C06900F020072068406A00F020000743DC
:10283000002F4BD001F016F9064641E020684068B1
:102840000090009800F0290020B3009800F00800E4
:1028500018B1606D40F004006065009800F0200041
:1028600018B1606D40F002006065009800F0010052
:1028700018B1606D40F00100606529202168886012
:10288000042084F8510000BF002084F8500000BFED
:102890000120A7E7681C98B101F0E4F8801BA8426A
:1028A00000D86DB9606D40F020006065032084F8A9
:1028B000510000BF002084F8500000BF032091E7C2
:1028C0002068406800F010000028B7D0122021686E
:1028D0008860012084F8510000BF002084F8500077
:1028E00000BF00BF7EE72DE9F84304460D461646BB
:1028F0001F46DDF8208000BF94F85000012802D167
:102900000220BDE8F883012084F8500000BF0220B7
:1029100084F851003B46324629462046CDF80080D7
:10292000FEF7D0FE2068006840F0010021680860D2
:102930000020E6E770B504460CB9012070BD94F89C
:102940003500022800D1F9E72068006820F0010076
:1029500021680860002021680860216848602168BB
:1029600088602168C8602168086121202168486169
:102970002046FEF71BFF054694F85C103F20884078
:10298000A8600020E06320646064A064E0642065C7
:10299000606584F8350000BF84F8340000BF00BFD4
:1029A000CCE700002DE9F0410446002501F05AF87B
:1029B000074614B90120BDE8F081606A00B100BF8C
:1029C00000BF002084F8340000BF022084F83500E6
:1029D0002068006820F00100216808600AE001F02A
:1029E00041F8C01B052805D920206065032084F824
:1029F0003500E0E72068006800F001000028EED113
:102A00002068056821480540D4E901010843E168D0
:102A100008432169084361690843A1690843E169E2
:102A20000843216A08430543606A042803D1D4E9B6
:102A30000B0108430543206805602068456925F0BF
:102A40000705606A0543606A04280DD1A06A054342
:102A5000E06A48B12046FEF7C3FE28B14020606519
:102A6000012084F83500A6E7206845612046FEF77E
:102A70009DFE064694F85C103F208840B060002020
:102A80006065012084F83500002094E73F8010E065
:102A9000024600BF107C012801D1022070470120AE
:102AA000107400BF00201368C3F8C400002310682E
:102AB000C0F8C830916101F0010040B11068D0F851
:102AC000C4004FF6FF7318431368C3F8C40001F045
:102AD000020038B11068D0F8C40040F4F810136850
:102AE000C3F8C40001F0040038B11068D0F8C80081
:102AF00040F001031068C0F8C83001F0080038B198
:102B00001068D0F8C80040F002031068C0F8C83060
:102B100001F0100038B11068D0F8C80040F00C0384
:102B20001068C0F8C83001F0200038B11068D0F843
:102B3000C80040F010031068C0F8C83001F0400031
:102B400038B11068D0F8C80040F020031068C0F811
:102B5000C83001F0800038B11068D0F8C80040F0EB
:102B600040031068C0F8C83001F4807038B11068B4
:102B7000D0F8C80040F080031068C0F8C83001F4F5
:102B8000007038B11068D0F8C80040F4F8531068ED
:102B9000C0F8C83000BF0020107400BF00BF7DE740
:102BA000024600BF107C012801D10220704701209D
:102BB000107400BF1068C06A20F01F001368D8624C
:102BC0001068C06A08431368D86200BF0020107400
:102BD00000BF00BFEAE7024600BF107C012801D118
:102BE000022070470120107400BF1068806820F434
:102BF0007F4013689860106880680B6840EA032083
:102C0000136898601068806F80B2136898671068C6
:102C1000806F8B8840EA0340136898671068806F64
:102C20006FF30F00136898671068806F8B68184304
:102C3000136898671068C06F030C1B041068C367A3
:102C40001068C06FCB6818431368D8671068D0F855
:102C50008000030C1B041068C0F880301068D0F8A6
:102C600080000B6918431368C3F880001068D0F81F
:102C70008400030C1B041068C0F884301068D0F87E
:102C800084004B6918431368C3F884001068D0F8B7
:102C9000840020F080731068C0F884301068D0F889
:102CA00084008B6918431368C3F884001068D0F857
:102CB0008800030C1B041068C0F888301068D0F836
:102CC0008800CB6918431368C3F888001068D0F8EF
:102CD0008C00030C1B041068C0F88C301068D0F80E
:102CE0008C000B6A18431368C3F88C0000BF0020E7
:102CF000107400BF00BF74E710B5024600BF107C1F
:102D0000012801D1022010BD0120107400BFD1E9BB
:102D10000040A04201D9486800E0086803461068F6
:102D2000D0F8980000F0FC201468C4F898001068EF
:102D3000D0F8980043EA034420431468C4F898008C
:102D40001068D0F89C0000F400401468C4F89C009F
:102D50008C89086940EA04400C7A40EA04601468EF
:102D6000D4F89C4020431468C4F89C001068D0F844
:102D7000A40020F47F401468C4F8A4001068D0F8C0
:102D8000A4004C6940EA04201468C4F8A40000BF01
:102D90000020107400BF00BFB5E7024600BF107CE2
:102DA000012801D1022070470120107400BF48683B
:102DB000032800D100BF1068406B20F001001368A9
:102DC00058631068D0F8000420F001001368C3F8BD
:102DD00000041068806B20F003001368986310688B
:102DE000806BCB681843136898631068C06B6FF3EF
:102DF0000D001368D8631068C06B0B691843136823
:102E0000D8631068006C6FF30C00136818641068C6
:102E1000006C4B691843136818641068406C6FF3BA
:102E20000C00136858641068406C8B691843136871
:102E300058641068C06820F003001368D8601068F8
:102E4000C0680B6818431368D8601068406920F0A8
:102E5000070013685861D1E908301843CB6918435B
:102E600013685B691843136858611068006920F0A3
:102E70000F0013681861106800694B6818431368E5
:102E800018611068D0F8000420F00E001368C3F831
:102E900000041068D0F800044B6840EA430013684F
:102EA000C3F80004486803280BD11068006920F4B7
:102EB000807013681861106800698B681843136884
:102EC00018611068806C6FF30B00136898641068C9
:102ED000806C8B6A1843136898641068C06C6FF339
:102EE0000B001368D8641068C06CCB6A1843136871
:102EF000D8641068006D6FF30E00136818651068D1
:102F0000006D0B6B1843136818651068406D6FF304
:102F10000900136858651068406D4B6B18431368BF
:102F200058651068806D6FF3090013689865106824
:102F3000806D8B6B1843136898651068C06D6FF3D4
:102F400009001368D8651068C06DCB6B184313680F
:102F5000D8651068006E6FF30D001368186610686E
:102F6000006E0B6C1843136818661068806B20F4B1
:102F70000040136898631068806B4B6C18431368AB
:102F800098631068806920F47F0013689861106866
:102F90008069B1F8483040EA0340136898611068CE
:102FA000806920F0FF001368986110688069CB6C1D
:102FB0001843136898611068806B20F40050136800
:102FC00098631068806B0B6D1843136898631068E2
:102FD000806B20F48050136898631068806B4B6D91
:102FE0001843136898631068806B20F400601368BE
:102FF00098631068806B8B6D184313689863106832
:10300000806B20F48060136898631068806BCB6DD0
:103010001843136898631068806B20F4007013687D
:1030200098631068806B0B6E184313689863106880
:10303000806B20F48070136898631068806B4B6E0F
:103040001843136898631068806B20F480401368FD
:1030500098631068806B8B6E18431368986300BF89
:103060000020107400BF00BF9DE638B504460CB9BF
:10307000012038BD0320607400BF0020009020684C
:10308000D0F8040420F008002168C1F80404206886
:10309000D0F8040400F00800009000BF00BF00BF9B
:1030A000002000902068406820F0010021684860FE
:1030B0002068406800F00100009000BF00BF206859
:1030C000D0F8A00020F006002168C1F8A00000BFE1
:1030D000002000902068D0F8300420F00100216822
:1030E000C1F830042068D0F8300400F001000090EE
:1030F00000BF00BF00BF002000902068D0F830045F
:1031000020F080702168C1F830042068D0F83004C5
:1031100000F08070009000BF00BF204600F05AF918
:1031200000206061607400BF207400BF00BFA0E792
:103130002DE9F84304460D4614B90120BDE8F88393
:10314000607C10B9204600F055F90320607400BF80
:10315000002000902068D0F8300440F08070216892
:10316000C1F830042068D0F8300400F0807000907E
:1031700000BF00BF00F076FC064607E000F072FCDE
:10318000801BB0F57A7F01D90320D7E72068D0F8FB
:103190000C0400F480500028F0D02068D0F83004EF
:1031A000514908402168C1F83004286880006968E6
:1031B00040EAC120298940EA01402168D1F8301451
:1031C00008432168C1F8300400BF00200090206847
:1031D000D0F8300440F001002168C1F830042068C4
:1031E000D0F8300400F00100009000BF00BF00F0F4
:1031F00039FC064607E000F035FC801BB0F57A7F0D
:1032000001D903209AE72068D0F80C0400F48070FC
:103210000028F0D02068D0F8A00040F00600216817
:10322000C1F8A0002068D0F8940020F003002168C5
:10323000C1F894002068D0F89400616841F0010161
:1032400008432168C1F894002068D0F8A40020F059
:1032500003002168C1F8A4002068D0F8A400E16848
:1032600008432168C1F8A4002068806820F0FF00AE
:103270002168886020688068A168084321688860A8
:10328000686808B1686800E001208046174808FBBC
:1032900000F0297A01F0030201219140484346F2EF
:1032A000A81229685143B0FBF1F72068D0F8180440
:1032B00020F03F002168C1F818042068D0F81804F5
:1032C00038432168C1F8180400202168C1F8C400FF
:1032D00000212068C0F8C8100020A06160610120B2
:1032E000607400202AE700000386FCFF00093D000F
:1032F0002DE9FF4F81B004461F46DDF83CA000BF1A
:10330000207C012803D1022005B0BDE8F08F012008
:10331000207400BF00F0A6FB83460CE000F0A2FB87
:10332000A0EB0B00B0F57A7F05D900BF0020207418
:1033300000BF0320E8E72068406F00F0010000288C
:10334000ECD0DDF83880032F01D2384600E00320AE
:103350000646002507E01AF80500E9000831884014
:1033600040EA08086D1CB542F5D32068C0F87080AB
:10337000A7EB0609B24419E0B9F1040F01D248469F
:1033800000E0042006464FF00008002506E01AF889
:103390000500E900884040EA08086D1CB542F6D3F4
:1033A0002068C0F87080A9EB0609B244B9F1000F9B
:1033B000E2D1781CC0F30720791CCBB200902068C2
:1033C000DDE90212FEF761FA00BF0020207400BFA1
:1033D00000BF99E7054A0168914205D1044909688F
:1033E00021F00061024A116070470000006C01404A
:1033F0004438024008B5094A016891420DD100BF26
:103400000749096841F00061054A116011460968E1
:1034100001F00061009100BF00BF08BD006C0140D9
:1034200044380240024600BF107C012801D102202E
:1034300070470120107400BF1068006B20F003007B
:10344000136818631068006B08431368186300BFA3
:103450000020107400BF00BFEAE7024600BF107CE6
:10346000012801D1022070470120107400BF1068AC
:10347000D0F81C0420F0C0631068C0F81C34106839
:10348000D0F81C0440EA41631068C0F81C3400BF47
:103490000020107400BF00BFE5E72DE9F8430446A3
:1034A0000E4617469846DDF8209000BF207C012884
:1034B00002D10220BDE8F8830120207400BF4346FA
:1034C0003A4631462046CDF80090FEF703FA05460D
:1034D00000BF0020207400BF2846EBE708B5014676
:1034E00000BF087C012801D1022008BD012008741A
:1034F00000BF00BF002000900868406840F0010055
:103500000A6850600868406800F00100009000BF41
:1035100000BF00BF002000900868D0F8040440F00D
:1035200008000A68C2F804040868D0F8040400F02F
:103530000800009000BF00BF00BF0020087400BF5B
:1035400000BFD2E770B5044600F08CFA0646254667
:10355000681C10B104480078054400BF00F082FAEE
:10356000801BA842FAD370BD0401002000B587B0CB
:10357000142102A8FCF708FF3848006808B107B01A
:1035800000BD01203549086000BF3548006840F0A3
:103590000100334908600846006800F0010001900E
:1035A00000BF00BF4FF683700290022003900020FE
:1035B0000490032005900C20069002A9294800F0F1
:1035C0002DF948F23310029002200390002004905D
:1035D000032005900C20069002A9234800F01EF954
:1035E0004CF203700290022003900020049003200C
:1035F00005900C20069002A91C4800F00FF940F23B
:10360000FF600290022003900020049003200590A8
:103610000C20069002A9164800F000F94FF63F0072
:1036200002900220039000200490032005900C20BB
:10363000069002A90F4800F0F1F84FF62C700290A6
:103640000220039000200490032005900C20069097
:1036500002A9094800F0E2F800BF90E7F00000205E
:10366000383802400010024000180240000C0240AE
:103670000020024000140240001C0240F0B50C463D
:1036800000250022002300219CE0012606FA01F516
:1036900004EA0502AA427CD14C4E8F0856F8273026
:1036A0008E07370F0F26BE403340494EB04201D13E
:1036B00000262DE0474EB04201D1012628E0464EBB
:1036C000B04201D1022623E0444EB04201D103268C
:1036D0001EE0434EB04201D1042619E0414EB042F3
:1036E00001D1052614E0404EB04201D106260FE07C
:1036F0003E4EB04201D107260AE03D4EB04201D114
:10370000082605E03B4EB04201D1092600E00A261A
:103710008F073F0FBE409E4222D18E07370F0F26E4
:1037200006FA07F3294E8F0856F827609E43274F65
:103730004FEA910C47F82C602F4E366896432E4F77
:103740003E603E1D366896433F1D3E603E1D366816
:1037500096433F1D3E603E1D366896433F1D3E60CA
:1037600006684FEA410C032707FA0CF7BE430660D0
:10377000CF0800F1200656F827604F074FEAD76CB4
:103780000F2707FA0CF7BE434FEAD10C00F12007D0
:1037900000E016E047F82C6086684FEA410C0327EA
:1037A00007FA0CF7BE438660466801278F40BE4388
:1037B0004660C6684FEA410C032707FA0CF7BE4380
:1037C000C660491C1029FFF460AFF0BD0838014005
:1037D000000002400004024000080240000C0240C9
:1037E000001002400014024000180240001C024079
:1037F0000020024000240240003C014070470000CD
:1038000010B5044604480068204020B10248046016
:103810002046FFF7F3FF10BD143C0140F8B5024607
:103820000B46002100250024002000BFE4E0012613
:1038300006FA01F51E6806EA0504AC4271D15E681D
:10384000022E02D05E68122E13D1CF0802F120069C
:1038500056F827004E07F70E0F26BE40B0434F071D
:10386000FF0E1E69BE403043CF0802F1200646F825
:10387000270010684F000326BE40B0431E7906F0B3
:1038800003064F00BE40304310605E68012E08D032
:103890005E68022E05D05E68112E02D05E68122E80
:1038A00013D190684F000326BE40B0434F00DE683E
:1038B000BE4030439060506801268E40B0431E7970
:1038C000C6F300168E4030435060D0684F00032688
:1038D000BE40B0434F009E68BE403043D0605E683B
:1038E00006F08056B6F1805FA8D100BF444E36681E
:1038F00046F48046424F3E603E46366806F48046B7
:10390000009600BF00BF3F4E8F0856F827008E0775
:10391000370F0F26BE40B0433B4EB24202D10026C5
:103920002EE068E0394EB24201D1012628E0384E3F
:10393000B24201D1022623E0364EB24201D1032623
:103940001EE0354EB24201D1042619E0334EB24298
:1039500001D1052614E0324EB24201D106260FE015
:10396000304EB24201D107260AE02F4EB24201D1B9
:10397000082605E02D4EB24201D1092600E00A26B4
:103980008F073F0FBE4030431E4E8F0846F827007A
:10399000274E3068A0435E6806F48036B6F5803F57
:1039A00000D12043224E3060361D3068A0435E684F
:1039B00006F40036B6F5003F00D120431C4E361DFC
:1039C0003060361D3068A0435E6806F48016B6F598
:1039D000801F00D12043164E08363060361D3068F7
:1039E000A0435E6806F40016B6F5001F00D1204320
:1039F0000F4E0C363060491C1029FFF418AFF8BD8B
:103A000044380240083801400000024000040240EF
:103A100000080240000C0240001002400014024066
:103A200000180240001C0240002002400024024016
:103A3000003C0140024613690B400BB1012000E03D
:103A40000020704742690A408A4202D10A0482611A
:103A500000E0816170470AB1816101E00B0483617C
:103A6000704700000148006870470000FC0000201B
:103A7000024692F8410020282DD100BF92F8400064
:103A8000012801D102207047012082F8400000BFC8
:103A9000242082F841001068006820F001001368BB
:103AA00018601068006820F480501368186010686F
:103AB00000680843136818601068006840F001004F
:103AC00013681860202082F8410000BF002082F8AF
:103AD000400000BFD7E70220D5E710B502460B46ED
:103AE00092F8410020282AD100BF92F84000012816
:103AF00001D1022010BD012082F8400000BF242027
:103B000082F841001068006820F00100146820600D
:103B10001068016821F4706141EA032110680160B6
:103B20001068006840F0010014682060202082F8CE
:103B3000410000BF002082F8400000BFDAE7022009
:103B4000D8E710B504460CB9012010BD242084F834
:103B500041002068006820F00100216808602046CC
:103B600000F010FA0020606484F84100206384F8BB
:103B7000420000BF84F8400000BF00BFE5E70146F7
:103B800091F841007047000010B504460CB90120BF
:103B900010BD94F8410028B9002084F84000204668
:103BA00000F008FA242084F841002068006820F022
:103BB000010021680860606820F070602168086179
:103BC0002068806820F4004021688860E06801284F
:103BD00005D1A06840F400402168886004E0A06836
:103BE00040F4044021688860E068022802D1800225
:103BF000216848602068406813490843216848608C
:103C00002068C06820F400402168C860D4E904013D
:103C10000843A16940EA01202168C860D4E907018E
:103C20000843216808602068006840F001002168AE
:103C3000086000206064202084F841000020206398
:103C400084F8420000BFA3E7008000022DE9FC5F7A
:103C50000446894692469B46DDE90C780E9E94F810
:103C6000410020287ED117B1B8F1000F05D14FF4E3
:103C7000007060640120BDE8FC9F00BF94F8400024
:103C8000012801D10220F6E7012084F8400000BF9E
:103C9000FFF7E8FE054619230122D10320460095CF
:103CA00002F05AFA08B10120E5E7222084F8410029
:103CB000402084F84200002060646762A4F82A80F3
:103CC00060635B46524649462046CDE9006502F0F6
:103CD000ADF930B100BF002084F8400000BF0120E2
:103CE000C9E7608DFF280CD9FF2020853D48009052
:103CF00094F828204FF080734946204602F012FACB
:103D00000BE0608D20853748009094F828204FF014
:103D100000734946204602F005FA00BF33460022F0
:103D200004212046009502F017FA08B10120A2E70D
:103D30002068406A616A0870606A401C6062208D79
:103D4000401E2085608D401E6085608D48B3208DAB
:103D500038BB3346002280212046009502F0FCF952
:103D600018B100E03CE0012085E7608DFF280CD908
:103D7000FF2020850020009094F828204FF08073C9
:103D80004946204602F0CEF90BE0608D20850020E8
:103D9000009094F828204FF000734946204602F026
:103DA000C1F9608D0028B9D12A463146204602F07B
:103DB00002FA08B101205EE720202168C86120686E
:103DC00040680949084021684860202084F8410083
:103DD000002084F8420000BF84F8400000BF4AE79A
:103DE000022048E70024008000E800FE2DE9FC5F87
:103DF0000446894692469B46DDE90C780E9E94F86F
:103E0000410020287DD117B1B8F1000F05D14FF442
:103E1000007060640120BDE8FC9F00BF94F8400082
:103E2000012801D10220F6E7012084F8400000BFFC
:103E3000FFF718FE054619230122D10320460095FD
:103E400002F08AF908B10120E5E7212084F8410059
:103E5000402084F84200002060646762A4F82A8051
:103E600060635B46524649462046CDE9006502F054
:103E70001BF930B100BF002084F8400000BF0120D2
:103E8000C9E7608DFF280CD9FF2020850020009015
:103E900094F828204FF080734946204602F042F9FA
:103EA0000BE0608D20850020009094F828204FF0D2
:103EB00000734946204602F035F900BF2A463146D4
:103EC000204602F0A3F908B10120A4E7606A007857
:103ED00021688862606A401C6062608D401E608557
:103EE000208D401E2085608D40B3208D30BB334631
:103EF000002280212046009502F02EF910B1012009
:103F000089E73AE0608DFF280CD9FF20208500204A
:103F1000009094F828204FF080734946204602F024
:103F200001F90BE0608D20850020009094F8282096
:103F30004FF000734946204602F0F4F8608D0028E7
:103F4000BCD12A463146204602F035F908B101209D
:103F500061E720202168C86120684068084908405E
:103F600021684860202084F84100002084F8420045
:103F700000BF84F8400000BF4DE702204BE700007F
:103F800000E800FE10B504460749206888420AD1BF
:103F90000648006820F40010044908604FF440719E
:103FA0000348FFF76BFB10BD00540040403802404F
:103FB0000004024010B586B00446142101A8FCF7A5
:103FC000E3F91949206888422CD100BF17480068DE
:103FD00040F00200154908600846006800F0020041
:103FE000009000BF00BF4FF440700190122002907B
:103FF00001200390032004900420059001A90C489F
:10400000FFF70CFC00BF09481030006840F40010B6
:104010000649103108600846006800F4001000905E
:1040200000BF00BF06B010BD005400403038024051
:104030000004024003480068034909780844014924
:1040400008607047FC0000200401002010B50A48F9
:10405000006840F40070084908600846006840F4B1
:1040600080700860032000F0C5F9002000F006F819
:1040700000F04CF9002010BD003C024070B588B043
:1040800004460025002600222146192000F074F97C
:10409000192000F061F900BF1648006840F00100E7
:1040A000144908600846006800F00100019000BF54
:1040B00000BF02A903A800F06DFE00F093FE4500CA
:1040C0000D48B5FBF0F0461E0C480D49086040F263
:1040D000E7310B48C160466000210161816001F059
:1040E0001EFE20B9064801F035FE08B070BD012063
:1040F000FBE700004438024040420F00000001404E
:104100005C2D00200246486A08B9002301E04FF008
:104110000053D360086A10B94FF0804300E00023D9
:104120009360C86910B94FF0004000E00020506073
:10413000486B401E9061D1E90D031844401E106287
:10414000D1E90D0318440B6C1844401E9062D1E96C
:104150000D0318440B6C1844CB6B1844401E1063BD
:104160000020704770B504460E46154600BF94F80F
:10417000A000012801D1022070BD012084F8A00018
:1041800000BF022084F8A10005EB850101EBC50208
:1041900004F1380101EB820034223146FCF7DBF8F0
:1041A0002A463146204602F0EFF901202168486294
:1041B00084F8A10000BF002084F8A00000BF00BF69
:1041C000DAE7000070B504460CB9012070BD94F820
:1041D000A10028B9002084F8A000204600F07EF855
:1041E000022084F8A1002068806920F070402168D6
:1041F0008861D4E901010843E16808432169084363
:10420000216889690843216888612068806832498B
:10421000084021688860A08A050420688068A16938
:1042200029430843216888602068C0682A490840FB
:104230002168C860A08B05042068C068216A2943F2
:1042400008432168C8602068006923490840216844
:104250000861A08C050420680069A16A294308430D
:1042600021680861206840691B490840216848614D
:10427000A08D050420684069216B2943084321680B
:10428000486194F83500050294F836000604206869
:10429000C06A00F07F402168C86246EA050094F8D1
:1042A000341008432168C96A08432168C86220683D
:1042B000406B40F00600216848632068806940F048
:1042C0000100216888610020C4F8A400012084F85E
:1042D000A10000207AE7000000F800F008B5094AC4
:1042E000016891420DD100BF0749096841F0806122
:1042F000054A11601146096801F08061009100BF14
:1043000000BF08BD006801404438024008B500BF46
:104310001048006840F080500E4908600846006868
:1043200000F08050009000BF00BF00BF081D006873
:1043300040F48040091D08600846006800F4804091
:10434000009000BF00BF00220F21901E00F014F863
:1043500008BD00004038024001460846002809DB3D
:1043600000F01F0301229A4043099B0003F1E02360
:10437000C3F8002100BF70472DE9F05F80460D466D
:104380001646002704F026FB074639462A463346E0
:1043900001F00700C0F1070ABAF1040F02D94FF08B
:1043A000040A01E0C0F1070AD14600F1040ABAF19B
:1043B000070F02D24FF0000A01E0A0F1030AD44631
:1043C0004FF0010A0AFA09FAAAF1010A0AEA020AF6
:1043D0000AFA0CFA4FF0010B0BFA0CFBABF1010BD4
:1043E0000BEA030B4AEA0B042146404604F0FAFAB2
:1043F000BDE8F09F00BF00F00702064B19684FF6BA
:10440000FF031940044B0B4343EA0221014B19609F
:1044100000BF70470CED00E00000FA0538B500243D
:1044200000BF2048006840F080501E4908600846E0
:10443000006800F08050009000BF00BF1A4800687C
:1044400040F4803018490860FFF70CFB044607E091
:10445000FFF708FB001BB0F57A7F01D9032038BDB8
:104460001148406800F48030B0F5803FF0D10E482C
:10447000006840F400300C490860FFF7F3FA044686
:1044800007E0FFF7EFFA001BB0F57A7F01D90320B0
:10449000E5E70548406800F40030B0F5003FF0D192
:1044A0000020DCE740380240007000402DE9F8436E
:1044B0000446002600250027A846A946207800F0DB
:1044C000010088B100BFFE48006820F40000FC49EC
:1044D000086008460068616B0843F949086000BF3E
:1044E000606B08B94FF00108206800F40020B0F5B7
:1044F000002F13D1F2488430006820F44010E16BA3
:104500000843EF4984310860E06BB0F5801F01D1AA
:104510004FF00108E06B08B94FF00109206800F482
:104520008010B0F5801F13D1E5488430006820F476
:104530004000216C0843E24984310860206CB0F5EA
:10454000800F01D14FF00108206C08B94FF001092C
:10455000206800F08070B0F1807F01D14FF0010839
:10456000207800F02000202870D100BFD4483830D7
:10457000006840F08050D249383108600846006831
:1045800000F08050009000BF00BFCE48006840F4AB
:104590008070CC490860FFF765FA064607E0FFF730
:1045A00061FA801B642802D90320BDE8F883C5485E
:1045B000006800F480700028F1D0C14868300068BD
:1045C00000F4407585B3208E00F44070A8422BD0D3
:1045D000BB486830006820F44075B948683000680E
:1045E00040F48030B649683108600846006820F41D
:1045F0008030086008460560006800F0010098B14E
:10460000FFF730FA064608E0FFF72CFA801B41F26C
:104610008831884201D90320C7E7A948683000687B
:10462000C0F340000028EFD000BF208E00F440709F
:10463000B0F5407F0BD1A248006820F4F810A24AE0
:10464000216B114008439E49086006E010E09C4839
:10465000006820F4F8109A490860994868300068AA
:10466000218EC1F30B01084395496831086000BFF2
:10467000207800F01000102810D100BF904884303E
:10468000006820F080708E49843108600846006818
:10469000A16B08438A498431086000BF208800F478
:1046A0008040B0F5804F09D185488830006820F4FB
:1046B0004030616E0843824988310860208800F4E8
:1046C0000040B0F5004F09D17D488830006820F4E3
:1046D0004020A16E08437A4988310860206800F4C0
:1046E0008030B0F5803F09D175488830006820F4EB
:1046F0004010E16E0843724988310860206800F478
:104700000030B0F5003F09D16D488830006820F4D2
:104710004000216F08436A4988310860207800F022
:104720004000402809D166488830006820F0030026
:10473000616C0843624988310860207800F080008D
:10474000802809D15E488830006820F00C00A16CF8
:1047500008435B4988310860208800F48070B0F518
:10476000807F09D156488830006820F03000E16C25
:104770000843534988310860208800F40070B0F580
:10478000007F09D14E488830006820F0C000216DBC
:1047900008434B4988310860208800F48060B0F5F8
:1047A000806F09D146488830006820F44070616D00
:1047B0000843434988310860208800F40060B0F560
:1047C000006F09D13E488830006820F44060A16D38
:1047D00008433B4988310860208800F48050B0F5D8
:1047E000805F09D136488830006820F44050E16D80
:1047F0000843334988310860208800F40050B0F540
:10480000005F09D12E488830006820F44040216EB6
:1048100008432B4988310860206800F48000B0F517
:10482000800F09D126488830006820F08060A16F91
:104830000843234988310860206800F40010B0F56F
:10484000001F0FD11E488830006820F00060E16F23
:1048500008431B4988310860E06FB0F1006F01D157
:104860004FF00109207800F00800082801D14FF02E
:104870000109206800F48020B0F5802F09D110488C
:104880008830006820F04070616F08430C4988311F
:104890000860206800F40000B0F5000F0AD1084855
:1048A0008830006820F08050D4F880100843044914
:1048B00088310860206800F08060B0F1806F05E00A
:1048C0000838024000700040FFFCFF0F08D1CC48C0
:1048D000006820F00050D4F884100843C8490860EC
:1048E000206800F00060B0F1006F0AD1C448001FDA
:1048F000006820F00070D4F888100843C049091FF0
:104900000860206800F08050B0F1805F0AD1BC4898
:10491000001F006820F08060D4F88C100843B8496C
:10492000091F0860B8F1010F03D02068B0F1007FC3
:104930007ED1B3489038006820F08060B04990394B
:104940000860FFF78FF8064606E0FFF78BF8801B3C
:10495000642801D9032028E6A94890380068C0F3EC
:10496000C0600028F1D1207800F00100B8B1606B80
:10497000A8B9A3480C380068C0F30145A0480C381A
:104980000068C0F303676068800140EA054040EAC0
:104990000761207A41EA007099490C390860206863
:1049A00000F40020B0F5002F03D1E06BB0F5801FBC
:1049B00009D0206800F48010B0F5801F24D1206C4D
:1049C000B0F5800F20D18E480C380068C0F3014547
:1049D0008B480C380068C0F302776068800140EAB9
:1049E0000541207B41EA006040EA077084490C39A8
:1049F00008608348001F006820F01F00616A491E9C
:104A000008437F49091F0860206800F08070B0F1FA
:104A1000807F17D17A480C380068C0F30365784866
:104A20000C380068C0F3027760688101208A00E0DA
:104A300036E041EA004040EA056040EA077070490C
:104A40000C390860206800F00070B0F1007F0DD1D3
:104A500060688101208A41EA0041207B41EA0061CF
:104A6000207A41EA007066490C3908606448903841
:104A7000006840F08060624990390860FEF7F2FFFC
:104A8000064606E0FEF7EEFF801B642801D90320EE
:104A90008BE55B4890380068C0F3C0600028F1D017
:104AA000B9F1010F7ED156489038006820F080504F
:104AB000534990390860FEF7D5FF064606E0FEF739
:104AC000D1FF801B642801D903206EE54C48903843
:104AD0000068C0F340700028F1D1206800F4002085
:104AE000B0F5002F01D1E06B38B1206800F48010E0
:104AF000B0F5801F22D1206C00BB41480838006807
:104B0000C0F301453E4808380068C0F30277606989
:104B1000800140EA0541207E41EA006040EA0770DA
:104B2000374908390860081D006820F4F851A06A68
:104B3000401E41EA00203249091F0860206800F445
:104B40000010B0F5001F19D1E06FB0F1006F15D162
:104B50002B4808380068C0F3036529480838006806
:104B6000C0F3027760698101208C41EA004040EA8D
:104B7000056040EA0770224908390860207800F093
:104B80000800082820D11E4808380068C0F30365D3
:104B90001B4808380068C0F301476069800140EA9B
:104BA000074000E02AE040EA0561207F41EA00700A
:104BB000134908390860081D006820F44030E16A94
:104BC00008430F49091F08600D489038006840F0FD
:104BD00080500B4990390860FEF744FF064606E016
:104BE000FEF740FF801B642801D90320DDE4044860
:104BF00090380068C0F340700028F1D00020D4E461
:104C00009038024070B504460D4600260CB90120CC
:104C100070BD5C48006800F00F00A8420ED25948F1
:104C2000006820F00F0028435649086008460068D5
:104C300000F00F00A84201D00120E9E7207800F041
:104C4000020002281DD1207800F00400042805D1BC
:104C50004D48006840F4E0504B490860207800F06F
:104C60000800082805D14848006840F460404649DB
:104C700008604548006820F0F000A16808434249F8
:104C80000860207800F0010090B36068012807D127
:104C90003D4808380068C0F34040A0B90120B7E79C
:104CA0006068022807D1384808380068C0F34060BF
:104CB00048B90120ACE7344808380068C0F3400028
:104CC00008B90120A4E73048006820F003006168BB
:104CD00008432D490860FEF7C5FE064609E0FEF7C9
:104CE000C1FE801B41F28831884202D903208FE740
:104CF00007E02548006800F00C006168B0EB810F08
:104D0000EDD12048006800F00F00A8420ED91D48E0
:104D1000006820F00F0028431A4908600846006820
:104D200000F00F00A84201D0012071E7207800F0C8
:104D30000400042807D11448006820F4E050E1681A
:104D4000084311490860207800F00800082808D1BD
:104D50000D48006820F46040216940EAC1000A491A
:104D6000086000F04FF808490968C1F30311074AC9
:104D7000515CC840064908600020FFF77FF9002019
:104D800046E70000003C024008380240A413010836
:104D9000F80000200F2202600D4A126802F00302A0
:104DA00042600B4A126802F0F0028260084A126800
:104DB00002F4E052C260064A126802F46042D2086D
:104DC0000261044A126802F00F020A607047000094
:104DD00008380240003C024001480068704700006B
:104DE000F800002000B5FFF7F7FF04490968C1F398
:104DF0004231034A515CC84000BD000008380240FF
:104E0000B41301082DE9F047002400250026A1462F
:104E10002548006800F00C0020B1042805D00828BF
:104E20003AD105E0DFF8849039E0DFF8849036E08D
:104E30001D48001F006800F03F041B48001F006869
:104E400000F4800078B11A481749091F0968C1F3B6
:104E50008811A0FB01700146224600233846FBF76B
:104E600049FA05460EE011480F49091F0968C1F3C8
:104E70008811A0FB01700146224600233846FBF74B
:104E800039FA05460848001F0068C0F30140401C7D
:104E90004600B5FBF6F902E0DFF8109000BF00BF56
:104EA0004846BDE8F0870000083802400024F400BE
:104EB00040787D01F8B5044600260CB90120F8BD04
:104EC000207800F00100002871D0F848006800F058
:104ED0000C0004280DD0F548006800F00C000828EC
:104EE00013D1F248001F006800F48000B0F5800F75
:104EF0000BD1EE4808380068C0F34040002869D064
:104F00006068002866D10120D9E700BF6068B0F56D
:104F1000803F08D1E5480838006840F48030E34914
:104F2000083908602EE0606868B9E0480838006811
:104F300020F48030DD49083908600846006820F414
:104F4000802008601EE06068B0F5A02F0DD1D74822
:104F50000838006840F48020D449083908600846C1
:104F6000006840F4803008600CE0D04808380068E1
:104F700020F48030CD49083908600846006820F4E4
:104F80008020086000BF606890B1FEF76BFD0546A9
:104F900006E0FEF767FD401B642801D903208EE779
:104FA000C24808380068C0F340400028F1D011E042
:104FB000FEF758FD054606E0FEF754FD401B642849
:104FC00001D903207BE7B94808380068C0F34040A6
:104FD0000028F1D1207800F00200022869D1B348FE
:104FE000006800F00C0058B1B048006800F00C00F8
:104FF00008281CD1AD48001F006800F48000B0B93B
:10500000AA4808380068C0F3400020B1E0680128D1
:1050100001D0012053E7A5480838006820F0F800C7
:10502000216940EAC100A1490839086041E0E0680F
:1050300028B39E480838006840F001009B490839B1
:105040000860FEF70FFD054606E0FEF70BFD401B6E
:10505000022801D9032032E7944808380068C0F3D9
:1050600040000028F1D091480838006820F0F8008E
:10507000216940EAC1008D490839086019E08B4870
:105080000838006820F00100884908390860FEF7F8
:10509000E9FC054606E0FEF7E5FC401B022801D9C5
:1050A00003200CE7814808380068C0F3400000285E
:1050B000F1D1207800F00800082836D16069D0B11D
:1050C0007A486C30006840F0010078496C31086023
:1050D000FEF7C8FC054606E0FEF7C4FC401B0228AC
:1050E00001D90320EBE671486C300068C0F3400042
:1050F0000028F1D019E06D486C30006820F0010004
:105100006A496C310860FEF7ADFC054606E0FEF723
:10511000A9FC401B022801D90320D0E663486C306B
:105120000068C0F340000028F1D1207800F00400AE
:10513000042874D15D483830006800F0805080B990
:1051400000BF5A483830006840F080505749383125
:1051500008600846006800F08050009000BF00BF63
:1051600001265348006800F48070B0B950480068C8
:1051700040F480704E490860FEF774FC054606E076
:10518000FEF770FC401B642801D9032097E64848CD
:10519000006800F480700028F2D000BFA0680128E9
:1051A00008D142486830006840F001003F4968314A
:1051B00008602DE0A06868B93C486830006820F0BD
:1051C00001003A49683108600846006820F0040090
:1051D00008601DE0A06805280DD1344868300068DB
:1051E00040F004003149683108600846006840F02A
:1051F000010008600CE02D486830006820F00100D4
:105200002A49683108600846006820F004000860F8
:1052100000BFA068A8B1FEF725FC054609E02EE016
:10522000FEF720FC401B41F28831884201D903205F
:1052300045E61E4868300068C0F340000028EFD003
:1052400013E0FEF70FFC054608E0FEF70BFC401BE1
:1052500041F28831884201D9032030E61348683092
:105260000068C0F340000028EFD1012E07D10F489D
:105270003830006820F080500C4938310860A0694F
:10528000F0B30A48006800F00C00082868D0A06954
:1052900002284DD105480838006820F08070034985
:1052A00008390860FEF7DEFB05460AE008380240D0
:1052B00000700040FEF7D6FB401B022801D90320F6
:1052C000FDE529480068C0F340600028F2D1D4E928
:1052D00007010843616A40EA81110122A06AC2EB1A
:1052E000500041EA00412C20005D41EA006130207D
:1052F000005D41EA00701C49091D0860081F00E0BC
:1053000030E0006840F08070091F0860FEF7AAFBDB
:10531000054606E0FEF7A6FB401B022801D9032044
:10532000CDE511480068C0F340600028F2D019E0D4
:105330000D48006820F080700B490860FEF792FB72
:10534000054606E0FEF78EFB401B022801D903202C
:10535000B5E505480068C0F340600028F2D101E0DF
:105360000120ACE50020AAE50038024070B50446F3
:105370000D460CB9012070BD94F82C0028B900200E
:1053800084F82D00204600F011F8022084F82C004B
:10539000211D2068FCF71CFF2946D4E90002FCF718
:1053A0006BFF012084F82C000020E4E710B50446D0
:1053B000FEF7DCF810BD70B504460D4694F82C00DD
:1053C000022800D170BD022084F82C0029462068F4
:1053D000FCF738FF012084F82C000020F2E770B5BC
:1053E00004460D46164694F82C00022800D170BDE4
:1053F000022084F82C00324629462068FCF729FF59
:105400002868022803D1052084F82C0002E001203E
:1054100084F82C000020EAE770B58AB004460D46F7
:105420000026032084F83400606C032820D0B5F5F2
:10543000805F04D1A06B40F08050A0631CE0B5F504
:10544000006F07D1204602F072FE0646A06B304383
:10545000A06311E03DB9204602F034FE0646A06B81
:105460003043A06308E0A06B40F00060A06303E05D
:10547000A06B40F08050A063A06B40B140F2FF50A1
:1054800021688863012084F834000AB070BD606828
:105490000490A0680590E068069007956069089000
:1054A000A069099007A807C88DE80700206804A92B
:1054B0000EC902F011FC012084F834000020E4E75A
:1054C00030B503460022586E020E90090870C2F3F0
:1054D0008300487002F003008870586EC0F30742E2
:1054E000CA70B3F86400C0F307220A7193F864200D
:1054F0004A71986E020E4FF6FF7000EA0210C880E3
:10550000986EC0F30742C88840EA1210C88002F0C3
:105510000F0008726820C05AC0F30722D0094872F1
:10552000C2F380108872C2F34010C872C2F3001038
:10553000087300204873586C00283ED19007000D76
:1055400008616820C25C086940EA82000861D86E80
:10555000020E086940EA92100861C2F3C2000875A1
:1055600002F007004875D86EC0F3074250098875ED
:10557000C2F38200C8759007400F08766C20C05AAD
:10558000C0F30722087E40EAD21008760869401C62
:1055900058650C7E586DA41C0125A54068435865CC
:1055A0000C7A0120A0409865D3E91504640A604391
:1055B000D8654FF400741C6630E0586C012821D186
:1055C0006820C25C9006800A0861D86E020E0869E5
:1055D00040EA02200861D86EC0F307420869104310
:1055E00008616C20C05AC0F307220869441C4FF4BC
:1055F0008060A4FB00045865D8654FF400749C6576
:105600001C660BE040F2FF501C68A063986B40F0F2
:1056100080509863012083F8340030BDC2F38010BD
:1056200001F8190F9006400E48706C20C25C487853
:1056300040EAD210487002F07F008870186F020EA6
:10564000D009C870C2F341100871C2F382004871DA
:105650009007000F8871186FC0F30742887940EAFD
:1056600092108871C2F34010C8710020087202F0D5
:10567000010048727020C05AC0F30722D009887216
:10568000C2F38010C872C2F340100873C2F3001056
:105690004873C2F38100887302F00300C87370205E
:1056A000C25C500808740120487419390020B4E71E
:1056B0000246506C0860906C4860D06C8860106D39
:1056C000C860506D0861906D4861D06D8861106E42
:1056D000C86100207047F8B5044604260025002064
:1056E00000906946204602F0D4FC054615B1A06B37
:1056F0002843A0630098C0F343263046F8BD10B598
:1057000004460CB9012010BD94F8340020B90020E3
:105710002077204600F052F8032084F83400204619
:1057200000F008F80020A0632063012084F8340012
:105730000020E8E730B589B004460025002003903A
:1057400004900590069007907620089006A807C858
:105750008DE80700206803A90EC902F0BDFA206891
:10576000406820F4807021684860206802F0CEFA1A
:105770002068406840F48070216848600220FDF78E
:10578000E1FE204602F00EFC054645B1012084F8FA
:105790003400A06B2843A063012009B030BD20462F
:1057A00002F082FB05463DB1012084F83400A06B75
:1057B0002843A0630120F0E70020EEE710B586B093
:1057C0000446142101A8FAF7DFFD3B49206888420E
:1057D00070D100BF3948006840F080003749086048
:1057E0000846006800F08000009000BF00BF00BFC6
:1057F00032481438006840F002003049143908601B
:105800000846006800F00200009000BF00BF00BF23
:105810000846006840F0080008600846006800F08C
:105820000800009000BF00BF00BF0846006840F0BD
:10583000400008600846006800F04000009000BF8B
:1058400000BF182001900220029001200390032045
:1058500004900A20059001A91948FDF7DFFF802078
:1058600001900220029001200390032004900B205D
:10587000059001A91348FDF7D1FF402001900220B7
:10588000029000200390032004900B20059001A9B2
:105890000C48FDF7C3FF4FF4C06001900220029056
:1058A00001200390032004900B20059001A90648D5
:1058B000FDF7B4FF06B010BD001C014044380240A3
:1058C00000040240000C0240001802402DE9F04F95
:1058D00087B004468A4690461E46DDF84090002573
:1058E000FEF7C0F80090AB465746BAF1000F07D15B
:1058F000A06B40F00060A063012007B0BDE8F08F0E
:1059000094F8340001287DD10020A06308EB060143
:10591000E06D814205D9A06B40F00070A0630120CA
:10592000EBE7032084F8340000202168C862606C33
:10593000012801D04FEA48284FF40071206801F097
:105940002DFE054655B140F2FF5021688863A06BDB
:105950002843A063012084F83400CEE74FF0FF30E5
:105960000190700202909020039002200490002089
:1059700005900120069001A9206801F0B7FF012ED3
:1059800007D9022020634146206801F073FE0546D6
:1059900006E0012020634146206801F088FE0546AC
:1059A00055B140F2FF5021688863A06B2843A06383
:1059B000012084F83400A0E72AE02068406B00F45E
:1059C000004068B14FF0000B06E0206802F0A3F938
:1059D00047F82B000BF1010BBBF1080FF5D3203773
:1059E000B9F1000F05D0FEF73DF80099401A48457F
:1059F0000ED340F2FF5021688863A06B40F0004056
:105A0000A06300E081E0012084F83400032074E703
:105A10002068406B00F495700028CED02068406B61
:105A200000F48070A0B1012E12D9606C03280FD051
:105A3000206801F003FF054655B140F2FF50216890
:105A40008863A06B2843A063012084F8340054E7E6
:105A50002068406B00F0080058B140F2FF50216808
:105A60008863A06B40F00800A063012084F8340034
:105A700043E72068406B00F0020058B140F2FF504D
:105A800021688863A06B40F00200A063012084F8C5
:105A9000340032E72068406B00F0200058B140F23B
:105AA000FF5021688863A06B40F02000A0630120B4
:105AB00084F8340021E719E0206802F02CF93860FE
:105AC0003F1DB9F1000F05D0FDF7CCFF0099401A3A
:105AD00048450BD340F2FF5021688863A06B40F02B
